:0300000002066C89
:0C066C00787FE4F6D8FD7581490205DEB8
:10035F0075A0FE20A7167F0A12063E20A70E30A713
:10036F00FD7F0A12063E30A7F57F052220A6167FD5
:10037F000A12063E20A60E30A6FD7F0A12063E3058
:10038F00A6F57F092220A5167F0A12063E20A50E8C
:10039F0030A5FD7F0A12063E30A5F57F0D2220A461
:1003AF00167F0A12063E20A40E30A4FD7F0A120605
:1003BF003E30A4F57F112275A0FC20A7167F0A12EC
:1003CF00063E20A70E30A7FD7F0A12063E30A7F586
:1003DF007F062220A6167F0A12063E20A60E30A602
:1003EF00FD7F0A12063E30A6F57F0A2220A5167F52
:1003FF000A12063E20A50E30A5FD7F0A12063E30DA
:10040F00A5F57F0E2220A4167F0A12063E20A40E09
:10041F0030A4FD7F0A12063E30A4F57F122275A08C
:10042F00FB20A7167F0A12063E20A70E30A7FD7FDE
:10043F000A12063E30A7F57F072220A6167F0A1262
:10044F00063E20A60E30A6FD7F0A12063E30A6F508
:10045F007F0B2220A5167F0A12063E20A50E30A57F
:10046F00FD7F0A12063E30A5F57F0F2220A4167FCE
:10047F000A12063E20A40E30A4FD7F0A12063E305B
:10048F00A4F57F132275A0F720A7167F0A12063E48
:10049F0020A70E30A7FD7F0A12063E30A7F57F0872
:1004AF002220A6167F0A12063E20A60E30A6FD7F3A
:1004BF000A12063E30A6F57F0C2220A5167F0A12DF
:1004CF00063E20A50E30A5FD7F0A12063E30A5F58B
:1004DF007F102220A4167F0A12063E20A40E30A4FD
:0F04EF00FD7F0A12063E30A4F57F14227F002203
:1005DE00E4F52312062A12035F8F22E52260F765E7
:1005EE002360F3120684E522FB7A00E4FDFF120578
:0605FE008C85222380E041
:03068900256400E5
:0C067800D287C291D290D2922087FD223E
:0E065000120678C291C2908F80D292C292227E
:0E065E00120678D291C2908F80D292C2922260
:10062A007F011206507F061206507F0C1206507F79
:04063A00380206502C
:050684007F0102065099
:1006040053070153050FEFC4333354C044804DFFE7
:100614001206501204FEFF600C12065E740129F9E2
:06062400E43AFA80EE2228
:08058C008F248D25AF03AE02A0
:100594007539FF753A06753B898E3C8F3D7B007A31
:1005A40000792612005F7B007A007926AD25AF24FE
:0305B40002060438
:10063E00AE071FEE600B007E027DC7DDFEDEFC8086
:01064E00EFBC
:01064F002288
:1004FE00BB010689828A83E0225002E722BBFE02FC
:09050E00E32289828A83E493222E
:10000300E5452439F8E60545227836300702783984
:10001300E475F0011205560204FE2000EB7F2ED298
:10002300008018EF540F2490D43440D4FF30040BD5
:10003300EF24BFB41A0050032461FFE546600215A4
:10004300460549E5497002054830070D7836E475E1
:10005300F001120556EF0205440205B77403D207F7
:100063008003E4C207F5458B368A378938E4F546C1
:10007300F548F549E54660077F2012003E80F57597
:1000830047FFC201C200C202C203C205C206C208C0
:1000930012000CFF700D3007057F0012004FAF49AF
:1000A300AE4822B4255FC2D5C20412000CFF24D08F
:1000B300B40A00501A75F00A784630D50508B6FF21
:1000C3000106C6A426F620D5047002D20380D924E3
:1000D300CFB41A00EF5004C2E5D20402024FD2019A
:1000E30080C6D20080C0D20280BCD2D580BAD205ED
:1000F30080B47F2012003E2002077401B546004001
:10010300F1120003FF12003E020077D208D20680EC
:1001130095120003FB120003FA120003F94A4B7015
:100123000679207A037BFF20022EE546602A7E00B3
:100133008E8275830012051760060EEE654770F018
:10014300C2D5EBC0E0EAC0E0E9C0E0EE120296D00F
:10015300E0F9D0E0FAD0E0FB1204FEFF60AAEBC0A6
:10016300E0EAC0E0E9C0E012003ED0E02401F9D0AB
:10017300E03400FAD0E0FBE5470460DCD547D980E2
:10018300877BFF7A027992D202809C791080027970
:1001930008C206C2088008D2D5790A8004790AC247
:1001A300D5E547047002F547E4FAFDFEFF120003AC
:1001B300FC7B08200113120003FD7B1030000A12A0
:1001C3000003FE120003FF7B20EC3382D592D5504F
:1001D30013C3E43000069FFFE49EFEE42001039D69
:1001E300FDE49CFCE4CBF8C201EC700CCFCECDCC8B
:1001F300E824F8F870F38017C3EF33FFEE33FEED16
:1002030033FDEC33FCEB33FB994002FB0FD8E9EBF6
:10021300300105F8D0E0C448B201C0E00AEC4D4E0D
:100223004F78207B0070C2EAB5470040BCC0E012A3
:100233000298D0F0D0E0200104C4C0E0C4B201C0F1
:10024300F0120027D0F0D5F0EB020077120566011B
:100253001453018E5800E54C00E14201924F019A7C
:0F02630044019A4900FA4301A0550184460184E1
:100272004501844703405000E92D00ED2E01102B6B
:1002820000F123010E2003292A00A94800000108D9
:100292003F3F3F00790AA2D5200314300509B91067
:1002A200020404B9080104A2D52006025001042068
:1002B20002689202B546005034C0E07F2030031934
:1002C2007F30A20272067205500F1202EFC202C202
:1002D20006C205C2087F30800F300503E9C0E01274
:1002E200003E300503D0E0F9D0E0B546CC3005172A
:1002F2007F30B9100C12003E7F583004077F78809F
:1003020003B9080312003E3002057F2D02003E7F32
:10031200202008F87F2B2006F322920280CF286E3D
:10032200756C6C2900D2011200033001F8C2017809
:100332004630D50108F60200A92D50434958120053
:10034200032403B405004001E490033B9312002F01
:0D035200743A12002FD20375460402018E8A
:10051700BB010CE58229F582E5833AF583E0225099
:1005270006E92582F8E622BBFE06E92582F8E222E3
:0D053700E58229F582E5833AF583E49322FD
:10054400BB010689828A83F0225002F722BBFE0196
:02055400F32290
:10055600FAE6FB0808E6F925F0F618E6CA3AF622A6
:10056600D083D082F8E4937012740193700DA3A324
:1005760093F8740193F5828883E473740293686038
:06058600EFA3A3A380DF38
:1005B700EFB40A07740D1205C2740A309811A8998E
:1005C700B8130CC2983098FDA899C298B811F630A4
:0705D70099FDC299F599227C
:00000001FF
